:020000040000FA
:020000000528D1
:080008002328A3010230A60029
:100010008130A80083168701871781128111011191
:1000200081100110181519309900181318128C1628
:100030008312981718131816073081008B170B17A7
:100040008B120B1122288C1E4E28A60B6228023020
:10005000A60027082806031D09001A08A400A1000D
:10006000A1132113A11221122108A200203CA500F6
:10007000241B3D28A41A42284028A41A46284428B4
:100080008A304A288B304A2887304A2881304A28CB
:1000900080304A288700A0008B165E28220823069D
:1000A00003195828A20B0900803087005E28090038
:1000B000A50B5E282108A200203CA5000730810086
:0A00C0000B1108001A08A700090040
:02400E00793FF8
:00000001FF
