:020000040000FA
:020000000528D1
:0800080026280608A300831658
:10001000FF3086008717071305159F139F111F11C7
:100020009F101F10181398161812181519309900E0
:100030000C12831298179F121F169F111F141F1561
:100040008B170B178B150B100B1125281F151F195C
:1000500027281E08A0000310A00C0310A00C0310FA
:10006000A00C0310A00C0310200C0608A306A31B71
:100070003E28231B4328A31A48284D28861F5228B0
:100080002013A0125528061F52282013A016552809
:10009000861E52282017A0125528061E5228201707
:1000A000A01655282013A0122012813099000000BC
:1000B00000000000200899000608A3000B100900AA
:02400E00793FF8
:00000001FF
